{
  "_format": "hh-sol-artifact-1",
  "contractName": "SimpleContract",
  "sourceName": "contracts/SimpleContract.sol",
  "abi": [
    {
      "inputs": [],
      "stateMutability": "nonpayable",
      "type": "constructor"
    },
    {
      "inputs": [],
      "name": "decrementValue",
      "outputs": [],
      "stateMutability": "nonpayable",
      "type": "function"
    },
    {
      "inputs": [],
      "name": "getValue",
      "outputs": [
        {
          "internalType": "uint256",
          "name": "",
          "type": "uint256"
        }
      ],
      "stateMutability": "view",
      "type": "function"
    },
    {
      "inputs": [],
      "name": "incrementValue",
      "outputs": [],
      "stateMutability": "nonpayable",
      "type": "function"
    },
    {
      "inputs": [
        {
          "internalType": "uint256",
          "name": "_newValue",
          "type": "uint256"
        }
      ],
      "name": "setValue",
      "outputs": [],
      "stateMutability": "nonpayable",
      "type": "function"
    },
    {
      "inputs": [],
      "name": "withdraw",
      "outputs": [],
      "stateMutability": "nonpayable",
      "type": "function"
    },
    {
      "stateMutability": "payable",
      "type": "receive"
    }
  ],
  "bytecode": "0x608060405234801561001057600080fd5b5033600160006101000a81548173ffffffffffffffffffffffffffffffffffffffff021916908373ffffffffffffffffffffffffffffffffffffffff1602179055506105db806100616000396000f3fe60806040526004361061004e5760003560e01c806316b781911461005a57806320965255146100715780633bfd7fd31461009c5780633ccfd60b146100b357806355241077146100ca57610055565b3661005557005b600080fd5b34801561006657600080fd5b5061006f6100f3565b005b34801561007d57600080fd5b5061008661019c565b60405161009391906104b6565b60405180910390f35b3480156100a857600080fd5b506100b16101a5565b005b3480156100bf57600080fd5b506100c861024e565b005b3480156100d657600080fd5b506100f160048036038101906100ec91906103f8565b610349565b005b600160009054906101000a900473ffffffffffffffffffffffffffffffffffffffff1673ffffffffffffffffffffffffffffffffffffffff163373ffffffffffffffffffffffffffffffffffffffff1614610183576040517f08c379a000000000000000000000000000000000000000000000000000000000815260040161017a90610496565b60405180910390fd5b600080815480929190610195906104ec565b9190505550565b60008054905090565b600160009054906101000a900473ffffffffffffffffffffffffffffffffffffffff1673ffffffffffffffffffffffffffffffffffffffff163373ffffffffffffffffffffffffffffffffffffffff1614610235576040517f08c379a000000000000000000000000000000000000000000000000000000000815260040161022c90610496565b60405180910390fd5b60008081548092919061024790610516565b9190505550565b600160009054906101000a900473ffffffffffffffffffffffffffffffffffffffff1673ffffffffffffffffffffffffffffffffffffffff163373ffffffffffffffffffffffffffffffffffffffff16146102de576040517f08c379a00000000000000000000000000000000000000000000000000000000081526004016102d590610496565b60405180910390fd5b600160009054906101000a900473ffffffffffffffffffffffffffffffffffffffff1673ffffffffffffffffffffffffffffffffffffffff166108fc479081150290604051600060405180830381858888f19350505050158015610346573d6000803e3d6000fd5b50565b600160009054906101000a900473ffffffffffffffffffffffffffffffffffffffff1673ffffffffffffffffffffffffffffffffffffffff163373ffffffffffffffffffffffffffffffffffffffff16146103d9576040517f08c379a00000000000000000000000000000000000000000000000000000000081526004016103d090610496565b60405180910390fd5b8060008190555050565b6000813590506103f28161058e565b92915050565b60006020828403121561040a57600080fd5b6000610418848285016103e3565b91505092915050565b600061042e602f836104d1565b91507f4f6e6c792074686520636f6e7472616374206f776e65722063616e207065726660008301527f6f726d207468697320616374696f6e00000000000000000000000000000000006020830152604082019050919050565b610490816104e2565b82525050565b600060208201905081810360008301526104af81610421565b9050919050565b60006020820190506104cb6000830184610487565b92915050565b600082825260208201905092915050565b6000819050919050565b60006104f7826104e2565b9150600082141561050b5761050a61055f565b5b600182039050919050565b6000610521826104e2565b91507fffffffffffffffffffffffffffffffffffffffffffffffffffffffffffffffff8214156105545761055361055f565b5b600182019050919050565b7f4e487b7100000000000000000000000000000000000000000000000000000000600052601160045260246000fd5b610597816104e2565b81146105a257600080fd5b5056fea2646970667358221220dcc0f6b325eb921789d796026969869d3e463437eb1812be4634e0b6f69c53f164736f6c63430008000033",
  "linkReferences": {},
  "deployedLinkReferences": {}
}